{
  "_format": "hh-sol-artifact-1",
  "contractName": "StakingContract",
  "sourceName": "contracts/StakingContract.sol",
  "abi": [
    {
      "inputs": [
        {
          "internalType": "address",
          "name": "_stakingTokenAddress",
          "type": "address"
        },
        {
          "internalType": "address",
          "name": "_rewardTokenAddress",
          "type": "address"
        }
      ],
      "stateMutability": "nonpayable",
      "type": "constructor"
    },
    {
      "anonymous": false,
      "inputs": [
        {
          "indexed": true,
          "internalType": "address",
          "name": "user",
          "type": "address"
        },
        {
          "indexed": false,
          "internalType": "uint256",
          "name": "amount",
          "type": "uint256"
        }
      ],
      "name": "RewardClaimed",
      "type": "event"
    },
    {
      "anonymous": false,
      "inputs": [
        {
          "indexed": true,
          "internalType": "address",
          "name": "user",
          "type": "address"
        },
        {
          "indexed": false,
          "internalType": "uint256",
          "name": "amount",
          "type": "uint256"
        }
      ],
      "name": "Staked",
      "type": "event"
    },
    {
      "anonymous": false,
      "inputs": [
        {
          "indexed": true,
          "internalType": "address",
          "name": "user",
          "type": "address"
        },
        {
          "indexed": false,
          "internalType": "uint256",
          "name": "stakedAmount",
          "type": "uint256"
        },
        {
          "indexed": false,
          "internalType": "uint256",
          "name": "rewardAmount",
          "type": "uint256"
        }
      ],
      "name": "Unstaked",
      "type": "event"
    },
    {
      "inputs": [],
      "name": "SECONDS_IN_YEAR",
      "outputs": [
        {
          "internalType": "uint256",
          "name": "",
          "type": "uint256"
        }
      ],
      "stateMutability": "view",
      "type": "function"
    },
    {
      "inputs": [],
      "name": "STAKE_REWARD_RATE",
      "outputs": [
        {
          "internalType": "uint256",
          "name": "",
          "type": "uint256"
        }
      ],
      "stateMutability": "view",
      "type": "function"
    },
    {
      "inputs": [
        {
          "internalType": "address",
          "name": "staker",
          "type": "address"
        }
      ],
      "name": "calculateReward",
      "outputs": [
        {
          "internalType": "uint256",
          "name": "",
          "type": "uint256"
        }
      ],
      "stateMutability": "view",
      "type": "function"
    },
    {
      "inputs": [],
      "name": "claimReward",
      "outputs": [],
      "stateMutability": "nonpayable",
      "type": "function"
    },
    {
      "inputs": [],
      "name": "owner",
      "outputs": [
        {
          "internalType": "address",
          "name": "",
          "type": "address"
        }
      ],
      "stateMutability": "view",
      "type": "function"
    },
    {
      "inputs": [],
      "name": "rewardToken",
      "outputs": [
        {
          "internalType": "contract RewardToken",
          "name": "",
          "type": "address"
        }
      ],
      "stateMutability": "view",
      "type": "function"
    },
    {
      "inputs": [
        {
          "internalType": "uint256",
          "name": "amount",
          "type": "uint256"
        }
      ],
      "name": "stake",
      "outputs": [],
      "stateMutability": "nonpayable",
      "type": "function"
    },
    {
      "inputs": [
        {
          "internalType": "address",
          "name": "",
          "type": "address"
        }
      ],
      "name": "stakes",
      "outputs": [
        {
          "internalType": "uint256",
          "name": "amount",
          "type": "uint256"
        },
        {
          "internalType": "uint256",
          "name": "timestamp",
          "type": "uint256"
        },
        {
          "internalType": "uint256",
          "name": "reward",
          "type": "uint256"
        },
        {
          "internalType": "uint256",
          "name": "totalStaked",
          "type": "uint256"
        }
      ],
      "stateMutability": "view",
      "type": "function"
    },
    {
      "inputs": [
        {
          "internalType": "address",
          "name": "",
          "type": "address"
        }
      ],
      "name": "stakingStatus",
      "outputs": [
        {
          "internalType": "enum StakingContract.StakingStatus",
          "name": "",
          "type": "uint8"
        }
      ],
      "stateMutability": "view",
      "type": "function"
    },
    {
      "inputs": [],
      "name": "stakingToken",
      "outputs": [
        {
          "internalType": "contract StakingToken",
          "name": "",
          "type": "address"
        }
      ],
      "stateMutability": "view",
      "type": "function"
    },
    {
      "inputs": [],
      "name": "unstake",
      "outputs": [],
      "stateMutability": "nonpayable",
      "type": "function"
    }
  ],
  "bytecode": "0x608060405234801561001057600080fd5b5060405161197b38038061197b8339818101604052810190610032919061023c565b600073ffffffffffffffffffffffffffffffffffffffff168273ffffffffffffffffffffffffffffffffffffffff16036100a1576040517f08c379a0000000000000000000000000000000000000000000000000000000008152600401610098906102d9565b60405180910390fd5b600073ffffffffffffffffffffffffffffffffffffffff168173ffffffffffffffffffffffffffffffffffffffff1603610110576040517f08c379a000000000000000000000000000000000000000000000000000000000815260040161010790610345565b60405180910390fd5b33600260006101000a81548173ffffffffffffffffffffffffffffffffffffffff021916908373ffffffffffffffffffffffffffffffffffffffff160217905550816000806101000a81548173ffffffffffffffffffffffffffffffffffffffff021916908373ffffffffffffffffffffffffffffffffffffffff16021790555080600160006101000a81548173ffffffffffffffffffffffffffffffffffffffff021916908373ffffffffffffffffffffffffffffffffffffffff1602179055505050610365565b600080fd5b600073ffffffffffffffffffffffffffffffffffffffff82169050919050565b6000610209826101de565b9050919050565b610219816101fe565b811461022457600080fd5b50565b60008151905061023681610210565b92915050565b60008060408385031215610253576102526101d9565b5b600061026185828601610227565b925050602061027285828601610227565b9150509250929050565b600082825260208201905092915050565b7f496e76616c6964207374616b696e6720746f6b656e2061646472657373000000600082015250565b60006102c3601d8361027c565b91506102ce8261028d565b602082019050919050565b600060208201905081810360008301526102f2816102b6565b9050919050565b7f496e76616c69642072657761726420746f6b656e206164647265737300000000600082015250565b600061032f601c8361027c565b915061033a826102f9565b602082019050919050565b6000602082019050818103600083015261035e81610322565b9050919050565b611607806103746000396000f3fe608060405234801561001057600080fd5b50600436106100a95760003560e01c80638da5cb5b116100715780638da5cb5b146101575780638f261a6214610175578063a694fc3a14610193578063b88a802f146101af578063d82e3962146101b9578063f7c618c1146101e9576100a9565b806316934fc4146100ae5780632def6620146100e15780634837eb1f146100eb5780635dcc93911461011b57806372f702f314610139575b600080fd5b6100c860048036038101906100c39190610ea0565b610207565b6040516100d89493929190610ee6565b60405180910390f35b6100e9610237565b005b61010560048036038101906101009190610ea0565b61069a565b6040516101129190610fa2565b60405180910390f35b6101236106ba565b6040516101309190610fbd565b60405180910390f35b6101416106c2565b60405161014e9190611037565b60405180910390f35b61015f6106e6565b60405161016c9190611061565b60405180910390f35b61017d61070c565b60405161018a9190610fbd565b60405180910390f35b6101ad60048036038101906101a891906110a8565b610711565b005b6101b761097f565b005b6101d360048036038101906101ce9190610ea0565b610c8a565b6040516101e09190610fbd565b60405180910390f35b6101f1610d81565b6040516101fe91906110f6565b60405180910390f35b60036020528060005260406000206000915090508060000154908060010154908060020154908060030154905084565b6001600281111561024b5761024a610f2b565b5b600460003373ffffffffffffffffffffffffffffffffffffffff1673ffffffffffffffffffffffffffffffffffffffff16815260200190815260200160002060009054906101000a900460ff1660028111156102aa576102a9610f2b565b5b146102ea576040517f08c379a00000000000000000000000000000000000000000000000000000000081526004016102e19061116e565b60405180910390fd5b6102f333610da7565b6000600360003373ffffffffffffffffffffffffffffffffffffffff1673ffffffffffffffffffffffffffffffffffffffff168152602001908152602001600020604051806080016040529081600082015481526020016001820154815260200160028201548152602001600382015481525050905060008160000151905060008260400151905060405180608001604052806000815260200160008152602001600081526020016000815250600360003373ffffffffffffffffffffffffffffffffffffffff1673ffffffffffffffffffffffffffffffffffffffff168152602001908152602001600020600082015181600001556020820151816001015560408201518160020155606082015181600301559050506002600460003373ffffffffffffffffffffffffffffffffffffffff1673ffffffffffffffffffffffffffffffffffffffff16815260200190815260200160002060006101000a81548160ff0219169083600281111561046d5761046c610f2b565b5b021790555060008060009054906101000a900473ffffffffffffffffffffffffffffffffffffffff1673ffffffffffffffffffffffffffffffffffffffff1663a9059cbb33856040518363ffffffff1660e01b81526004016104d092919061118e565b6020604051808303816000875af11580156104ef573d6000803e3d6000fd5b505050506040513d601f19601f8201168201806040525081019061051391906111ef565b905080610555576040517f08c379a000000000000000000000000000000000000000000000000000000000815260040161054c90611268565b60405180910390fd5b6000821115610644576000600160009054906101000a900473ffffffffffffffffffffffffffffffffffffffff1673ffffffffffffffffffffffffffffffffffffffff1663a9059cbb33856040518363ffffffff1660e01b81526004016105bd92919061118e565b6020604051808303816000875af11580156105dc573d6000803e3d6000fd5b505050506040513d601f19601f8201168201806040525081019061060091906111ef565b905080610642576040517f08c379a0000000000000000000000000000000000000000000000000000000008152600401610639906112d4565b60405180910390fd5b505b3373ffffffffffffffffffffffffffffffffffffffff167f7fc4727e062e336010f2c282598ef5f14facb3de68cf8195c2f23e1454b2b74e848460405161068c9291906112f4565b60405180910390a250505050565b60046020528060005260406000206000915054906101000a900460ff1681565b6301e1338081565b60008054906101000a900473ffffffffffffffffffffffffffffffffffffffff1681565b600260009054906101000a900473ffffffffffffffffffffffffffffffffffffffff1681565b600a81565b60008111610754576040517f08c379a000000000000000000000000000000000000000000000000000000000815260040161074b90611369565b60405180910390fd5b6000600360003373ffffffffffffffffffffffffffffffffffffffff1673ffffffffffffffffffffffffffffffffffffffff16815260200190815260200160002090506107a033610da7565b818160000160008282546107b491906113b8565b92505081905550428160010181905550818160030160008282546107d891906113b8565b925050819055506001600460003373ffffffffffffffffffffffffffffffffffffffff1673ffffffffffffffffffffffffffffffffffffffff16815260200190815260200160002060006101000a81548160ff0219169083600281111561084257610841610f2b565b5b021790555060008060009054906101000a900473ffffffffffffffffffffffffffffffffffffffff1673ffffffffffffffffffffffffffffffffffffffff166323b872dd3330866040518463ffffffff1660e01b81526004016108a7939291906113ec565b6020604051808303816000875af11580156108c6573d6000803e3d6000fd5b505050506040513d601f19601f820116820180604052508101906108ea91906111ef565b90508061092c576040517f08c379a00000000000000000000000000000000000000000000000000000000081526004016109239061146f565b60405180910390fd5b3373ffffffffffffffffffffffffffffffffffffffff167f9e71bc8eea02a63969f509818f2dafb9254532904319f9dbda79b67bd34a5f3d846040516109729190610fbd565b60405180910390a2505050565b6001600281111561099357610992610f2b565b5b600460003373ffffffffffffffffffffffffffffffffffffffff1673ffffffffffffffffffffffffffffffffffffffff16815260200190815260200160002060009054906101000a900460ff1660028111156109f2576109f1610f2b565b5b14610a32576040517f08c379a0000000000000000000000000000000000000000000000000000000008152600401610a299061116e565b60405180910390fd5b610a3b33610da7565b6000600360003373ffffffffffffffffffffffffffffffffffffffff1673ffffffffffffffffffffffffffffffffffffffff16815260200190815260200160002060020154905060008111610ac5576040517f08c379a0000000000000000000000000000000000000000000000000000000008152600401610abc906114db565b60405180910390fd5b6000600360003373ffffffffffffffffffffffffffffffffffffffff1673ffffffffffffffffffffffffffffffffffffffff1681526020019081526020016000206002018190555042600360003373ffffffffffffffffffffffffffffffffffffffff1673ffffffffffffffffffffffffffffffffffffffff168152602001908152602001600020600101819055506000600160009054906101000a900473ffffffffffffffffffffffffffffffffffffffff1673ffffffffffffffffffffffffffffffffffffffff1663a9059cbb33846040518363ffffffff1660e01b8152600401610bb392919061118e565b6020604051808303816000875af1158015610bd2573d6000803e3d6000fd5b505050506040513d601f19601f82011682018060405250810190610bf691906111ef565b905080610c38576040517f08c379a0000000000000000000000000000000000000000000000000000000008152600401610c2f906112d4565b60405180910390fd5b3373ffffffffffffffffffffffffffffffffffffffff167f106f923f993c2149d49b4255ff723acafa1f2d94393f561d3eda32ae348f724183604051610c7e9190610fbd565b60405180910390a25050565b600080600360008473ffffffffffffffffffffffffffffffffffffffff1673ffffffffffffffffffffffffffffffffffffffff16815260200190815260200160002060405180608001604052908160008201548152602001600182015481526020016002820154815260200160038201548152505090506000816000015103610d17576000915050610d7c565b6000816020015142610d2991906114fb565b9050600060646301e1338083600a8660000151610d46919061152f565b610d50919061152f565b610d5a91906115a0565b610d6491906115a0565b9050808360400151610d7691906113b8565b93505050505b919050565b600160009054906101000a900473ffffffffffffffffffffffffffffffffffffffff1681565b6000600360008373ffffffffffffffffffffffffffffffffffffffff1673ffffffffffffffffffffffffffffffffffffffff1681526020019081526020016000209050600081600001541115610e395760008160020154610e0784610c8a565b610e1191906114fb565b905080826002016000828254610e2791906113b8565b92505081905550428260010181905550505b5050565b600080fd5b600073ffffffffffffffffffffffffffffffffffffffff82169050919050565b6000610e6d82610e42565b9050919050565b610e7d81610e62565b8114610e8857600080fd5b50565b600081359050610e9a81610e74565b92915050565b600060208284031215610eb657610eb5610e3d565b5b6000610ec484828501610e8b565b91505092915050565b6000819050919050565b610ee081610ecd565b82525050565b6000608082019050610efb6000830187610ed7565b610f086020830186610ed7565b610f156040830185610ed7565b610f226060830184610ed7565b95945050505050565b7f4e487b7100000000000000000000000000000000000000000000000000000000600052602160045260246000fd5b60038110610f6b57610f6a610f2b565b5b50565b6000819050610f7c82610f5a565b919050565b6000610f8c82610f6e565b9050919050565b610f9c81610f81565b82525050565b6000602082019050610fb76000830184610f93565b92915050565b6000602082019050610fd26000830184610ed7565b92915050565b6000819050919050565b6000610ffd610ff8610ff384610e42565b610fd8565b610e42565b9050919050565b600061100f82610fe2565b9050919050565b600061102182611004565b9050919050565b61103181611016565b82525050565b600060208201905061104c6000830184611028565b92915050565b61105b81610e62565b82525050565b60006020820190506110766000830184611052565b92915050565b61108581610ecd565b811461109057600080fd5b50565b6000813590506110a28161107c565b92915050565b6000602082840312156110be576110bd610e3d565b5b60006110cc84828501611093565b91505092915050565b60006110e082611004565b9050919050565b6110f0816110d5565b82525050565b600060208201905061110b60008301846110e7565b92915050565b600082825260208201905092915050565b7f4e6f74207374616b656400000000000000000000000000000000000000000000600082015250565b6000611158600a83611111565b915061116382611122565b602082019050919050565b600060208201905081810360008301526111878161114b565b9050919050565b60006040820190506111a36000830185611052565b6111b06020830184610ed7565b9392505050565b60008115159050919050565b6111cc816111b7565b81146111d757600080fd5b50565b6000815190506111e9816111c3565b92915050565b60006020828403121561120557611204610e3d565b5b6000611213848285016111da565b91505092915050565b7f5374616b65207472616e73666572206661696c65640000000000000000000000600082015250565b6000611252601583611111565b915061125d8261121c565b602082019050919050565b6000602082019050818103600083015261128181611245565b9050919050565b7f526577617264207472616e73666572206661696c656400000000000000000000600082015250565b60006112be601683611111565b91506112c982611288565b602082019050919050565b600060208201905081810360008301526112ed816112b1565b9050919050565b60006040820190506113096000830185610ed7565b6113166020830184610ed7565b9392505050565b7f416d6f756e74206d7573742062652067726561746572207468616e2030000000600082015250565b6000611353601d83611111565b915061135e8261131d565b602082019050919050565b6000602082019050818103600083015261138281611346565b9050919050565b7f4e487b7100000000000000000000000000000000000000000000000000000000600052601160045260246000fd5b60006113c382610ecd565b91506113ce83610ecd565b92508282019050808211156113e6576113e5611389565b5b92915050565b60006060820190506114016000830186611052565b61140e6020830185611052565b61141b6040830184610ed7565b949350505050565b7f546f6b656e207472616e73666572206661696c65640000000000000000000000600082015250565b6000611459601583611111565b915061146482611423565b602082019050919050565b600060208201905081810360008301526114888161144c565b9050919050565b7f4e6f2072657761726420746f20636c61696d0000000000000000000000000000600082015250565b60006114c5601283611111565b91506114d08261148f565b602082019050919050565b600060208201905081810360008301526114f4816114b8565b9050919050565b600061150682610ecd565b915061151183610ecd565b925082820390508181111561152957611528611389565b5b92915050565b600061153a82610ecd565b915061154583610ecd565b925082820261155381610ecd565b9150828204841483151761156a57611569611389565b5b5092915050565b7f4e487b7100000000000000000000000000000000000000000000000000000000600052601260045260246000fd5b60006115ab82610ecd565b91506115b683610ecd565b9250826115c6576115c5611571565b5b82820490509291505056fea264697066735822122090b950979c6549e63cfb17f030b980b6e24441a6984f632235400886aa61b98f64736f6c634300081c0033",
  "linkReferences": {},
  "deployedLinkReferences": {}
}