{
  "_format": "hh-sol-artifact-1",
  "contractName": "StakingToken",
  "sourceName": "contracts/StakingToken.sol",
  "abi": [
    {
      "inputs": [
        {
          "internalType": "string",
          "name": "_name",
          "type": "string"
        },
        {
          "internalType": "string",
          "name": "_symbol",
          "type": "string"
        },
        {
          "internalType": "uint256",
          "name": "_initialSupply",
          "type": "uint256"
        }
      ],
      "stateMutability": "nonpayable",
      "type": "constructor"
    },
    {
      "anonymous": false,
      "inputs": [
        {
          "indexed": true,
          "internalType": "address",
          "name": "user",
          "type": "address"
        },
        {
          "indexed": false,
          "internalType": "uint256",
          "name": "amount",
          "type": "uint256"
        }
      ],
      "name": "Staked",
      "type": "event"
    },
    {
      "inputs": [
        {
          "internalType": "address",
          "name": "",
          "type": "address"
        },
        {
          "internalType": "address",
          "name": "",
          "type": "address"
        }
      ],
      "name": "allowance",
      "outputs": [
        {
          "internalType": "uint256",
          "name": "",
          "type": "uint256"
        }
      ],
      "stateMutability": "view",
      "type": "function"
    },
    {
      "inputs": [
        {
          "internalType": "address",
          "name": "spender",
          "type": "address"
        },
        {
          "internalType": "uint256",
          "name": "amount",
          "type": "uint256"
        }
      ],
      "name": "approve",
      "outputs": [
        {
          "internalType": "bool",
          "name": "",
          "type": "bool"
        }
      ],
      "stateMutability": "nonpayable",
      "type": "function"
    },
    {
      "inputs": [
        {
          "internalType": "address",
          "name": "",
          "type": "address"
        }
      ],
      "name": "balanceOf",
      "outputs": [
        {
          "internalType": "uint256",
          "name": "",
          "type": "uint256"
        }
      ],
      "stateMutability": "view",
      "type": "function"
    },
    {
      "inputs": [
        {
          "internalType": "uint256",
          "name": "amount",
          "type": "uint256"
        }
      ],
      "name": "burn",
      "outputs": [],
      "stateMutability": "nonpayable",
      "type": "function"
    },
    {
      "inputs": [],
      "name": "decimals",
      "outputs": [
        {
          "internalType": "uint8",
          "name": "",
          "type": "uint8"
        }
      ],
      "stateMutability": "view",
      "type": "function"
    },
    {
      "inputs": [
        {
          "internalType": "address",
          "name": "to",
          "type": "address"
        },
        {
          "internalType": "uint256",
          "name": "amount",
          "type": "uint256"
        }
      ],
      "name": "mint",
      "outputs": [],
      "stateMutability": "nonpayable",
      "type": "function"
    },
    {
      "inputs": [],
      "name": "name",
      "outputs": [
        {
          "internalType": "string",
          "name": "",
          "type": "string"
        }
      ],
      "stateMutability": "view",
      "type": "function"
    },
    {
      "inputs": [],
      "name": "owner",
      "outputs": [
        {
          "internalType": "address",
          "name": "",
          "type": "address"
        }
      ],
      "stateMutability": "view",
      "type": "function"
    },
    {
      "inputs": [],
      "name": "symbol",
      "outputs": [
        {
          "internalType": "string",
          "name": "",
          "type": "string"
        }
      ],
      "stateMutability": "view",
      "type": "function"
    },
    {
      "inputs": [],
      "name": "totalSupply",
      "outputs": [
        {
          "internalType": "uint256",
          "name": "",
          "type": "uint256"
        }
      ],
      "stateMutability": "view",
      "type": "function"
    },
    {
      "inputs": [
        {
          "internalType": "address",
          "name": "to",
          "type": "address"
        },
        {
          "internalType": "uint256",
          "name": "amount",
          "type": "uint256"
        }
      ],
      "name": "transfer",
      "outputs": [
        {
          "internalType": "bool",
          "name": "",
          "type": "bool"
        }
      ],
      "stateMutability": "nonpayable",
      "type": "function"
    },
    {
      "inputs": [
        {
          "internalType": "address",
          "name": "from",
          "type": "address"
        },
        {
          "internalType": "address",
          "name": "to",
          "type": "address"
        },
        {
          "internalType": "uint256",
          "name": "amount",
          "type": "uint256"
        }
      ],
      "name": "transferFrom",
      "outputs": [
        {
          "internalType": "bool",
          "name": "",
          "type": "bool"
        }
      ],
      "stateMutability": "nonpayable",
      "type": "function"
    }
  ],
  "bytecode": "0x60806040526040518060400160405280600a81526020017f5374616b65546f6b656e00000000000000000000000000000000000000000000815250600090816100489190610404565b506040518060400160405280600381526020017f53544b00000000000000000000000000000000000000000000000000000000008152506001908161008d9190610404565b506012600260006101000a81548160ff021916908360ff1602179055503480156100b657600080fd5b50604051611cb1380380611cb183398181016040528101906100d89190610648565b33600260016101000a81548173ffffffffffffffffffffffffffffffffffffffff021916908373ffffffffffffffffffffffffffffffffffffffff16021790555082600090816101289190610404565b5081600190816101389190610404565b50600260009054906101000a900460ff16600a6101559190610842565b81610160919061088d565b600381905550600354600460003373ffffffffffffffffffffffffffffffffffffffff1673ffffffffffffffffffffffffffffffffffffffff168152602001908152602001600020819055505050506108cf565b600081519050919050565b7f4e487b7100000000000000000000000000000000000000000000000000000000600052604160045260246000fd5b7f4e487b7100000000000000000000000000000000000000000000000000000000600052602260045260246000fd5b6000600282049050600182168061023557607f821691505b602082108103610248576102476101ee565b5b50919050565b60008190508160005260206000209050919050565b60006020601f8301049050919050565b600082821b905092915050565b6000600883026102b07fffffffffffffffffffffffffffffffffffffffffffffffffffffffffffffffff82610273565b6102ba8683610273565b95508019841693508086168417925050509392505050565b6000819050919050565b6000819050919050565b60006103016102fc6102f7846102d2565b6102dc565b6102d2565b9050919050565b6000819050919050565b61031b836102e6565b61032f61032782610308565b848454610280565b825550505050565b600090565b610344610337565b61034f818484610312565b505050565b5b818110156103735761036860008261033c565b600181019050610355565b5050565b601f8211156103b8576103898161024e565b61039284610263565b810160208510156103a1578190505b6103b56103ad85610263565b830182610354565b50505b505050565b600082821c905092915050565b60006103db600019846008026103bd565b1980831691505092915050565b60006103f483836103ca565b9150826002028217905092915050565b61040d826101b4565b67ffffffffffffffff811115610426576104256101bf565b5b610430825461021d565b61043b828285610377565b600060209050601f83116001811461046e576000841561045c578287015190505b61046685826103e8565b8655506104ce565b601f19841661047c8661024e565b60005b828110156104a45784890151825560018201915060208501945060208101905061047f565b868310156104c157848901516104bd601f8916826103ca565b8355505b6001600288020188555050505b505050505050565b6000604051905090565b600080fd5b600080fd5b600080fd5b600080fd5b6000601f19601f8301169050919050565b61050e826104f4565b810181811067ffffffffffffffff8211171561052d5761052c6101bf565b5b80604052505050565b60006105406104d6565b905061054c8282610505565b919050565b600067ffffffffffffffff82111561056c5761056b6101bf565b5b610575826104f4565b9050602081019050919050565b60005b838110156105a0578082015181840152602081019050610585565b60008484015250505050565b60006105bf6105ba84610551565b610536565b9050828152602081018484840111156105db576105da6104ef565b5b6105e6848285610582565b509392505050565b600082601f830112610603576106026104ea565b5b81516106138482602086016105ac565b91505092915050565b610625816102d2565b811461063057600080fd5b50565b6000815190506106428161061c565b92915050565b600080600060608486031215610661576106606104e0565b5b600084015167ffffffffffffffff81111561067f5761067e6104e5565b5b61068b868287016105ee565b935050602084015167ffffffffffffffff8111156106ac576106ab6104e5565b5b6106b8868287016105ee565b92505060406106c986828701610633565b9150509250925092565b7f4e487b7100000000000000000000000000000000000000000000000000000000600052601160045260246000fd5b60008160011c9050919050565b6000808291508390505b600185111561075957808604811115610735576107346106d3565b5b60018516156107445780820291505b808102905061075285610702565b9450610719565b94509492505050565b600082610772576001905061082e565b81610780576000905061082e565b816001811461079657600281146107a0576107cf565b600191505061082e565b60ff8411156107b2576107b16106d3565b5b8360020a9150848211156107c9576107c86106d3565b5b5061082e565b5060208310610133831016604e8410600b84101617156108045782820a9050838111156107ff576107fe6106d3565b5b61082e565b610811848484600161070f565b92509050818404811115610828576108276106d3565b5b81810290505b9392505050565b600060ff82169050919050565b600061084d826102d2565b915061085883610835565b92506108857fffffffffffffffffffffffffffffffffffffffffffffffffffffffffffffffff8484610762565b905092915050565b6000610898826102d2565b91506108a3836102d2565b92508282026108b1816102d2565b915082820484148315176108c8576108c76106d3565b5b5092915050565b6113d3806108de6000396000f3fe608060405234801561001057600080fd5b50600436106100b45760003560e01c806342966c681161007157806342966c681461018f57806370a08231146101ab5780638da5cb5b146101db57806395d89b41146101f9578063a9059cbb14610217578063dd62ed3e14610247576100b4565b806306fdde03146100b9578063095ea7b3146100d757806318160ddd1461010757806323b872dd14610125578063313ce5671461015557806340c10f1914610173575b600080fd5b6100c1610277565b6040516100ce9190610c8d565b60405180910390f35b6100f160048036038101906100ec9190610d48565b610305565b6040516100fe9190610da3565b60405180910390f35b61010f610392565b60405161011c9190610dcd565b60405180910390f35b61013f600480360381019061013a9190610de8565b610398565b60405161014c9190610da3565b60405180910390f35b61015d610693565b60405161016a9190610e57565b60405180910390f35b61018d60048036038101906101889190610d48565b6106a6565b005b6101a960048036038101906101a49190610e72565b610844565b005b6101c560048036038101906101c09190610e9f565b610964565b6040516101d29190610dcd565b60405180910390f35b6101e361097c565b6040516101f09190610edb565b60405180910390f35b6102016109a2565b60405161020e9190610c8d565b60405180910390f35b610231600480360381019061022c9190610d48565b610a30565b60405161023e9190610da3565b60405180910390f35b610261600480360381019061025c9190610ef6565b610bd8565b60405161026e9190610dcd565b60405180910390f35b6000805461028490610f65565b80601f01602080910402602001604051908101604052809291908181526020018280546102b090610f65565b80156102fd5780601f106102d2576101008083540402835291602001916102fd565b820191906000526020600020905b8154815290600101906020018083116102e057829003601f168201915b505050505081565b600081600560003373ffffffffffffffffffffffffffffffffffffffff1673ffffffffffffffffffffffffffffffffffffffff16815260200190815260200160002060008573ffffffffffffffffffffffffffffffffffffffff1673ffffffffffffffffffffffffffffffffffffffff168152602001908152602001600020819055506001905092915050565b60035481565b60008073ffffffffffffffffffffffffffffffffffffffff168373ffffffffffffffffffffffffffffffffffffffff1603610408576040517f08c379a00000000000000000000000000000000000000000000000000000000081526004016103ff90610fe2565b60405180910390fd5b81600460008673ffffffffffffffffffffffffffffffffffffffff1673ffffffffffffffffffffffffffffffffffffffff16815260200190815260200160002054101561048a576040517f08c379a00000000000000000000000000000000000000000000000000000000081526004016104819061104e565b60405180910390fd5b81600560008673ffffffffffffffffffffffffffffffffffffffff1673ffffffffffffffffffffffffffffffffffffffff16815260200190815260200160002060003373ffffffffffffffffffffffffffffffffffffffff1673ffffffffffffffffffffffffffffffffffffffff168152602001908152602001600020541015610549576040517f08c379a0000000000000000000000000000000000000000000000000000000008152600401610540906110ba565b60405180910390fd5b81600460008673ffffffffffffffffffffffffffffffffffffffff1673ffffffffffffffffffffffffffffffffffffffff16815260200190815260200160002060008282546105989190611109565b9250508190555081600460008573ffffffffffffffffffffffffffffffffffffffff1673ffffffffffffffffffffffffffffffffffffffff16815260200190815260200160002060008282546105ee919061113d565b9250508190555081600560008673ffffffffffffffffffffffffffffffffffffffff1673ffffffffffffffffffffffffffffffffffffffff16815260200190815260200160002060003373ffffffffffffffffffffffffffffffffffffffff1673ffffffffffffffffffffffffffffffffffffffff16815260200190815260200160002060008282546106819190611109565b92505081905550600190509392505050565b600260009054906101000a900460ff1681565b600260019054906101000a900473ffffffffffffffffffffffffffffffffffffffff1673ffffffffffffffffffffffffffffffffffffffff163373ffffffffffffffffffffffffffffffffffffffff1614610736576040517f08c379a000000000000000000000000000000000000000000000000000000000815260040161072d906111bd565b60405180910390fd5b600073ffffffffffffffffffffffffffffffffffffffff168273ffffffffffffffffffffffffffffffffffffffff16036107a5576040517f08c379a000000000000000000000000000000000000000000000000000000000815260040161079c90610fe2565b60405180910390fd5b6000600260009054906101000a900460ff16600a6107c39190611310565b826107ce919061135b565b905080600360008282546107e2919061113d565b9250508190555080600460008573ffffffffffffffffffffffffffffffffffffffff1673ffffffffffffffffffffffffffffffffffffffff1681526020019081526020016000206000828254610838919061113d565b92505081905550505050565b6000600260009054906101000a900460ff16600a6108629190611310565b8261086d919061135b565b905080600460003373ffffffffffffffffffffffffffffffffffffffff1673ffffffffffffffffffffffffffffffffffffffff1681526020019081526020016000205410156108f1576040517f08c379a00000000000000000000000000000000000000000000000000000000081526004016108e89061104e565b60405180910390fd5b80600460003373ffffffffffffffffffffffffffffffffffffffff1673ffffffffffffffffffffffffffffffffffffffff16815260200190815260200160002060008282546109409190611109565b9250508190555080600360008282546109599190611109565b925050819055505050565b60046020528060005260406000206000915090505481565b600260019054906101000a900473ffffffffffffffffffffffffffffffffffffffff1681565b600180546109af90610f65565b80601f01602080910402602001604051908101604052809291908181526020018280546109db90610f65565b8015610a285780601f106109fd57610100808354040283529160200191610a28565b820191906000526020600020905b815481529060010190602001808311610a0b57829003601f168201915b505050505081565b60008073ffffffffffffffffffffffffffffffffffffffff168373ffffffffffffffffffffffffffffffffffffffff1603610aa0576040517f08c379a0000000000000000000000000000000000000000000000000000000008152600401610a9790610fe2565b60405180910390fd5b81600460003373ffffffffffffffffffffffffffffffffffffffff1673ffffffffffffffffffffffffffffffffffffffff168152602001908152602001600020541015610b22576040517f08c379a0000000000000000000000000000000000000000000000000000000008152600401610b199061104e565b60405180910390fd5b81600460003373ffffffffffffffffffffffffffffffffffffffff1673ffffffffffffffffffffffffffffffffffffffff1681526020019081526020016000206000828254610b719190611109565b9250508190555081600460008573ffffffffffffffffffffffffffffffffffffffff1673ffffffffffffffffffffffffffffffffffffffff1681526020019081526020016000206000828254610bc7919061113d565b925050819055506001905092915050565b6005602052816000526040600020602052806000526040600020600091509150505481565b600081519050919050565b600082825260208201905092915050565b60005b83811015610c37578082015181840152602081019050610c1c565b60008484015250505050565b6000601f19601f8301169050919050565b6000610c5f82610bfd565b610c698185610c08565b9350610c79818560208601610c19565b610c8281610c43565b840191505092915050565b60006020820190508181036000830152610ca78184610c54565b905092915050565b600080fd5b600073ffffffffffffffffffffffffffffffffffffffff82169050919050565b6000610cdf82610cb4565b9050919050565b610cef81610cd4565b8114610cfa57600080fd5b50565b600081359050610d0c81610ce6565b92915050565b6000819050919050565b610d2581610d12565b8114610d3057600080fd5b50565b600081359050610d4281610d1c565b92915050565b60008060408385031215610d5f57610d5e610caf565b5b6000610d6d85828601610cfd565b9250506020610d7e85828601610d33565b9150509250929050565b60008115159050919050565b610d9d81610d88565b82525050565b6000602082019050610db86000830184610d94565b92915050565b610dc781610d12565b82525050565b6000602082019050610de26000830184610dbe565b92915050565b600080600060608486031215610e0157610e00610caf565b5b6000610e0f86828701610cfd565b9350506020610e2086828701610cfd565b9250506040610e3186828701610d33565b9150509250925092565b600060ff82169050919050565b610e5181610e3b565b82525050565b6000602082019050610e6c6000830184610e48565b92915050565b600060208284031215610e8857610e87610caf565b5b6000610e9684828501610d33565b91505092915050565b600060208284031215610eb557610eb4610caf565b5b6000610ec384828501610cfd565b91505092915050565b610ed581610cd4565b82525050565b6000602082019050610ef06000830184610ecc565b92915050565b60008060408385031215610f0d57610f0c610caf565b5b6000610f1b85828601610cfd565b9250506020610f2c85828601610cfd565b9150509250929050565b7f4e487b7100000000000000000000000000000000000000000000000000000000600052602260045260246000fd5b60006002820490506001821680610f7d57607f821691505b602082108103610f9057610f8f610f36565b5b50919050565b7f496e76616c696420616464726573730000000000000000000000000000000000600082015250565b6000610fcc600f83610c08565b9150610fd782610f96565b602082019050919050565b60006020820190508181036000830152610ffb81610fbf565b9050919050565b7f4e6f7420656e6f7567682062616c616e63650000000000000000000000000000600082015250565b6000611038601283610c08565b915061104382611002565b602082019050919050565b600060208201905081810360008301526110678161102b565b9050919050565b7f416c6c6f77616e63652065786365656465640000000000000000000000000000600082015250565b60006110a4601283610c08565b91506110af8261106e565b602082019050919050565b600060208201905081810360008301526110d381611097565b9050919050565b7f4e487b7100000000000000000000000000000000000000000000000000000000600052601160045260246000fd5b600061111482610d12565b915061111f83610d12565b9250828203905081811115611137576111366110da565b5b92915050565b600061114882610d12565b915061115383610d12565b925082820190508082111561116b5761116a6110da565b5b92915050565b7f4e6f74206f776e65720000000000000000000000000000000000000000000000600082015250565b60006111a7600983610c08565b91506111b282611171565b602082019050919050565b600060208201905081810360008301526111d68161119a565b9050919050565b60008160011c9050919050565b6000808291508390505b6001851115611234578086048111156112105761120f6110da565b5b600185161561121f5780820291505b808102905061122d856111dd565b94506111f4565b94509492505050565b60008261124d5760019050611309565b8161125b5760009050611309565b8160018114611271576002811461127b576112aa565b6001915050611309565b60ff84111561128d5761128c6110da565b5b8360020a9150848211156112a4576112a36110da565b5b50611309565b5060208310610133831016604e8410600b84101617156112df5782820a9050838111156112da576112d96110da565b5b611309565b6112ec84848460016111ea565b92509050818404811115611303576113026110da565b5b81810290505b9392505050565b600061131b82610d12565b915061132683610e3b565b92506113537fffffffffffffffffffffffffffffffffffffffffffffffffffffffffffffffff848461123d565b905092915050565b600061136682610d12565b915061137183610d12565b925082820261137f81610d12565b91508282048414831517611396576113956110da565b5b509291505056fea2646970667358221220eb0548ee44034fbc00b410b140cfbb7f7a104796c750c27b736a1fc0f8b484e464736f6c634300081c0033",
  "linkReferences": {},
  "deployedLinkReferences": {}
}